{
  "contractName": "Funder",
  "abi": [
    {
      "inputs": [],
      "name": "numOfFunders",
      "outputs": [
        {
          "internalType": "uint256",
          "name": "",
          "type": "uint256"
        }
      ],
      "stateMutability": "view",
      "type": "function",
      "constant": true
    },
    {
      "inputs": [],
      "name": "transfer",
      "outputs": [],
      "stateMutability": "payable",
      "type": "function",
      "payable": true
    },
    {
      "inputs": [
        {
          "internalType": "uint256",
          "name": "withdrawAmount",
          "type": "uint256"
        }
      ],
      "name": "withdraw",
      "outputs": [],
      "stateMutability": "nonpayable",
      "type": "function"
    }
  ],
  "bytecode": "0x608060405234801561001057600080fd5b506102cc806100206000396000f3fe6080604052600436106100345760003560e01c80632e1a7d4d146100395780638a4068dd14610062578063af7f2c9b1461006c575b600080fd5b34801561004557600080fd5b50610060600480360381019061005b91906101c2565b610097565b005b61006a61012c565b005b34801561007857600080fd5b50610081610181565b60405161008e91906101fe565b60405180910390f35b671bc16d674ec800008111156100e2576040517f08c379a00000000000000000000000000000000000000000000000000000000081526004016100d990610276565b60405180910390fd5b3373ffffffffffffffffffffffffffffffffffffffff166108fc829081150290604051600060405180830381858888f19350505050158015610128573d6000803e3d6000fd5b5050565b33600160008054815260200190815260200160002060006101000a81548173ffffffffffffffffffffffffffffffffffffffff021916908373ffffffffffffffffffffffffffffffffffffffff160217905550565b60005481565b600080fd5b6000819050919050565b61019f8161018c565b81146101aa57600080fd5b50565b6000813590506101bc81610196565b92915050565b6000602082840312156101d8576101d7610187565b5b60006101e6848285016101ad565b91505092915050565b6101f88161018c565b82525050565b600060208201905061021360008301846101ef565b92915050565b600082825260208201905092915050565b7f63616e6e6f74207769746864726177207570746f203220457468657220000000600082015250565b6000610260601d83610219565b915061026b8261022a565b602082019050919050565b6000602082019050818103600083015261028f81610253565b905091905056fea2646970667358221220a6ded09f88f8c74d217e58b03165cd02897cb0c8a6dfcc52f14b7d6453f2c84364736f6c634300080b0033",
  "immutableReferences": {},
  "source": "pragma solidity^0.8.11;\r\n\r\ncontract Funder{\r\n\r\nuint public numOfFunders;\r\nmapping(uint256 => address) private funders;\r\n\r\nfunction transfer() external payable {\r\n    funders[numOfFunders] =msg.sender;\r\n}\r\n\r\nfunction withdraw(uint withdrawAmount) external{\r\nrequire(withdrawAmount <= 2000000000000000000,\"cannot withdraw upto 2 Ether \");\r\npayable(msg.sender).transfer(withdrawAmount);\r\n\r\n}\r\n\r\n\r\n\r\n}",
  "sourcePath": "F:\\DefiApp\\ReactCourse\\contracts\\Funder.sol",
  "compiler": {
    "name": "solc",
    "version": "0.8.11+commit.d7f03943.Emscripten.clang"
  },
  "schemaVersion": "3.4.4",
  "updatedAt": "2022-04-06T19:41:53.969Z",
  "networkType": "ethereum",
  "devdoc": {
    "kind": "dev",
    "methods": {},
    "version": 1
  },
  "userdoc": {
    "kind": "user",
    "methods": {},
    "version": 1
  }
}